:105FA800E4900000F0A3F053B1FB43B2047592FFF4
:105FB800F5917594FFF5931249DB900001E05403C5
:105FC800FF125E24900001E004F07006900000E0EB
:105FD80004F012587F123FE61247F9124B85125708
:105FE800B0125A041254FE7FE87E0312611280CA6E
:10149100514474656368B0E6C8A8CBF9D3D000C8DD
:1014A100ABB6AFB5E7D7D3D7DBBACFB2E2CAD4B3C5
:1014B100CCD0F200C8ABB6AFB5E7D7D300D7DBBA13
:1014C100CFB2E2CAD4B3CCD0F200332E35272049B3
:1014D1004C4939343836203332305834383000787A
:1014E10069616F46656E6740514474656368203277
:1014F1003031342D30322D323500B2E2CAD4313A96
:10150100B4BFC9ABCCEEB3E4B2E2CAD40057686948
:10151100746500426C61636B0052656400477265DB
:10152100656E00426C756500B2E2CAD4323A475525
:1015310049BED8D0CECCEEB3E4B2E2CAD400B2E216
:10154100CAD4333A475549BBADD4B2CCEEB3E4B2B9
:10155100E2CAD400B2E2CAD4343AD3A2CEC4CFD4C0
:10156100CABEB2E2CAD400365831323A616263640B
:1015710065666768696A6B6C6D6E6F7071727374A2
:1015810075767778797A00365831323A4142434458
:1015910045464748494A4B4C4D4E4F503031323306
:1015A10034353637383900365831323A7E214023C6
:1015B10024255E262A28295F2B7B7D3A3C3E3F2F3E
:1015C1007C2D2B2E00385831363A61626364656692
:1015D1006768696A6B6C6D6E6F7071727374757622
:1015E1007700385831363A414243444546474849E5
:1015F1004A4B4C4D4E303132333435363700385842
:1016010031363A7E21402324255E262A28295F2B64
:101611007B7D3A3C3E3F2F7C00B2E2CAD4353AD6BC
:10162100D0CEC4CFD4CABEB2E2CAD400313658310A
:10163100363AC8ABB6AFB5E7D7D3BCBCCAF5D3D041
:10164100CFDEB9ABCBBEBBB6D3ADC4FA0031365891
:1016510031363A57656C636F6D65C8ABB6AFB5E7A8
:10166100D7D30032345832343AC9EEDBDACAD0D695
:10167100D0CEC4B2E2CAD40033325833323AD7D6CC
:10168100CCE5B2E2CAD400B2E2CAD4363ACDBCC685
:10169100ACCFD4CABEB2E2CAD400515100B2E2CA40
:1016A100D4373A546F756368B2E2CAD400525354C6
:1016B10000FFFFFFFFFFFFFFFFFFFFFFFFFFFFFF38
:1016C100FFFFFFFFFFFFFFFFFFFFFFFFFFFFFFBE6A
:1016D100F7FFFFDEFF38C6928C8E6B6E6B107C9627
:1016E100AD3CE7FFFFFFFFFFFFFFFFFFFFFFFFFF36
:1016F100FFFFFFFFFFFFFFFFFFFFFFFFFFFFFFFFF9
:10170100FFFFFFFFFFFFFFFFFFFFFFFFFFFFFFFFE8
:10171100FFFFFFFFFFFFFFFFFFFFFFFFFFFFFF5D7A
:10172100EF159D4F636C420A3288294619251945E8
:1017310021E8318E6B38C6FFFFFFFFFFFFFFFFFF80
:10174100FFFFFFFFFFFFFFFFFFFFFFFFFFFFFFFFA8
:10175100FFFFFFFFFFFFFFFFFFFFFFFFFFFFFFFF98
:10176100FFFFFFFFFFFFFFFFFFFFFFFFFF36A5109A
:1017710053104B51530F4B6C3AE93167212519E452
:1017810010A30862008308CB529AD6FFFFFFFFFF28
:10179100FFFFFFFFFFFFFFFFFFFFFFFFFFFFFFFF58
:1017A100FFFFFFFFFFFFFFFFFFFFFFFFFFFFFFFF48
:1017B100FFFFFFFFFFFFFFFFFF3CE77063B363B86D
:1017C1007CF56311434D32EA298821261905190553
:1017D1001904110411E4108300A308728CFFFFFFA8
:1017E100FFFFFFFFFFFFFFFFFFFFFFFFFFFFFFFF08
:1017F100FFFFFFFFFFFFFFFFFFFFFFFFFFFFFFFFF8
:10180100FFFFFFFFFFFFFFDBDE4B3AF042356C5479
:101811004BB1322E2AEB21A92167190519041104B4
:10182100110411041104110519E4104200AF73FFF2
:10183100FFFFFFFFFFFFFFFFFFFFFFFFFFFFFFFFB7
:10184100FFFFFFFFFFFFFFFFFFFFFFFFFFFFFFFFA7
:10185100FFFFFFFFFF5DEF09324C32104B8F324F1C
:101861002A2E2ACC1989198921471905190411042D
:1018710011C410C410041104110411E41042003108
:1018810084FFFFFFFFFFFFFFFFFFFFFFFFFFFFFFE2
:10189100FFFFFFFFFFFFFFFFFFFFFFFFFFFFFFFF57
:1018A100FFFFFFFFFFEC5247194C320B2AEC21ECF2
:1018B100210C22915BEE4A061126190419E410E469
:1018C10010A7296621A308051904110411E4108247
:1018D10000F7BDFFFFFFFFFFFFFFFFFFFFFFFFFF60
:1018E100FFFFFFFFFFFFFFFFFFFFFFFFFFFFFFFF07
:1018F100FFFFFF35A58308882188218921AA218A34
:10190100216B42718CFFFF728C83080411C408297A
:1019110042FBDE5DEFEC5A830804110411041183CC
:1019210008E831DFFFFFFFFFFFFFFFFFFFFFFFFFC2
:10193100FFFFFFFFFFFFFFFFFFFFFFFFFFFFFFFFB6
:10194100FFBEF7C731C4102519261947194719A831
:10195100298A52284A55ADFFFFE831A30805194DE0
:101961006B4D6BFFFF7DEF4521C410041104110481
:1019710011620076ADFFFFFFFFFFFFFFFFFFFFFFDB
:10198100FFFFFFFFFFFFFFFFFFFFFFFFFFFFFFFF66
:10199100FF96B562000411041905110519C4088BDD
:1019A1004AB6B55DEFF7BDFFFF8E6B62002942AA13
:1019B1005A0842FFFFFFFFCC5283080411041104AF
:1019C10011A308AD52FFFFFFFFFFFFFFFFFFFFFF66
:1019D100FFFFFFFFFFFFFF1CE7FFFFFFFFFFFFFF11
:1019E100FF4E636200041104110411E41062008EC1
:1019F10063FFFFFFFFFFFFFFFFCF730100F39C2C8D
:101A01006396B5FFFFFFFF2D5B83000411041104F2
:101A110011E41067213DEFFFFFFFFFFFFFFFFFFF15
:101A2100FFF8BDB7B59EEFCB52B394FFFFFFFFDFC9
:101A3100FFE831A3080411041104110411A308499A
:101A410042FFF7FFF7FFFFFFFF6A4A01007284FFC1
:101A5100FFFFFFFFF7DFEF093AA3080411041104A8
:101A6100110411051118BEFFFFFFFFFFFFFFFFFF6C
:101A7100FFF07B6200E831C731410035A5FFFF5D12
:101A8100EF4621C4100411041104110411E410A340
:101A910008769DFFF7FFFFB7ADA308A308C7319EE6
:101AA100E7FFF7FFF776A5A308E41004110411047A
:101AB100110511051135A5FFFFFFFFFFFFFFFFFF17
:101AC100FFDBDEA7298300C410C410C4101CE79EED
:101AD100EF0511E41004110411041104110419C4D7
:101AE10008E510D16BD16BC5086400A50843002B34
:101AF10032779DB3842519C4100411041104110413
:101B01001125192609359DFFFFFFFFFFFFFFFFFF8D
:101B1100FFFFFFAF7362000419051982000D5B8E90
:101B21009B62100511041104110419E410850005CC
:101B310011C439815A407B229C43AC03A4839B820C
:101B4100728249C218A400C500E4100419041105E9
:101B51001947196711EC5ABEFFFFFFFFFFFFFFFF97
:101B6100FFDFFFDBDEC410E41004110511A418012E
:101B7100C08388E40005190419C50844214383235F
:101B8100D542FEE4FE27FF07FFA4FE64FE03FEA389
:101B9100FDE2FC42EC83B32462E510C4080419267B
:101BA10019A81987210090D3BCFFFFFFFFFFFFFF9A
:101BB100FFDFFFFFFF107C4200051905118328019B
:101BC100D044F8A348E400C508445A02EDE2FD02FE
:101BD100FE66FE74FFB8FF73FFE7F6A6F645F6A4AE
:101BE100F5C3FC62FCC2FCC2FCE3CBC4490611880C
:101BF100198701A49001F8EC9AFFFFFFFFFFFFFF97
:101C0100FFFFFFFFFFBEF7E83183000509824001B6
:101C1100C023F885F0A348A400445A02FD23CCC296
:101C2100DC04FE28FE48F646F624F6E4F564FDE3FE
:101C3100FC62FCC2FC02E402DCE2FCA47A4801671B
:101C410001C47824F802F884B07DE7FFFFFFFFFFAD
:101C5100FFFFFFFFFFFFFFDBDE2519A300C43802F2
:101C6100E022D844F8A6F8A4786300432183728364
:101C710039829B21F561FD22FDE2FCA2FC42FC427E
:101C8100FC42FC22AB8341C392045226012519A4D4
:101C91009844F823F802F8A4D09EEFFFFFFFFFFF5E
:101CA100FFFFFFFFFFFFFFFFFF9AD68729A5004334
:101CB100B822F823E065F8E8F807C983484200A391
:101CC1000084006329A27A62B3A2CB62D302BB82F1
:101CD1008A8339A400E500E500E508C46064D844BE
:101CE100F824F823F802F88388DBC6FFFFFFFFFF23
:101CF100FFFFFFFFFFFFFFFFFFFFFF3DE7505B0817
:101D01003123E843F844F065F809F9ABF989D106C4
:101D110089A3484218020042006100820062006209
:101D2100008300A320C450A58885D865F844F844F1
:101D3100F823F823F803D08210C7295DEFFFFFFFD6
:101D4100FFFFFFFFFFFFFFFFFFFFFFFFFFFFFF6C35
:101D510032A53802D823F865F866F8A7F84AF90CD5
:101D6100FA4DFA4CEA0BD2A9B968B147A927B107D4
:101D7100B907D1E7E8C7F8A7F865F865F844F8238B
:101D8100F803F802D0A3280509C408EC5AFFFFFFA5
:101D9100FFFFFFFFFFFFFFFFFFFFFFFFFFFBDE0571
:101DA10019C400A741E6C003F886F8A7F887F886AA
:101DB100F8C7F829F98AF9ABF9ABF98BF96AF9296E
:101DC100F908F9C7F8A6F886F865F864F823F80267
:101DD100F006B12529E400E41025192519149DFF09
:101DE100FFFFFFFFFFFFFFFFFFFFFFFFFF96AD625A
:101DF1000082083595BACE8BA244D025F887F8A782
:101E0100F8C7F8A7F887F886F886F886F887F8A75C
:101E1100F8A7F8A6F885F865F864F824F064B80D19
:101E210093BBB6CF6383080411E4106621493A5D80
:101E3100EFFFFFFFFFFFFFFFFFFFFFFFFFD3944215
:101E410000E410BBCEFFFFBEE776B5CCAA07C145C3
:101E5100E045F846F866F886F886F886F886F8656B
:101E6100F845F865F865E844D043A8018882903CBC
:101E7100D7FFEF559583080411041105194619B3CD
:101E810094FFFFFFFFFFFFFFFFFFFFFFFFB3944141
:101E91000086215DDFFFFFFFFFFFFFDFE77AC6D38B
:101EA100B44EB32AC268D1E6E0A6E8A5E8A5E8E603
:101EB100D888C906A922A802A800A000C800D8F79E
:101EC100E5FFE7F8ADC410E4100411E41005118B2F
:101ED1004AFFFFFFFFFFFFFFFFFFFFFFFF55A54188
:101EE10000A7295DDFFFF7FFFFFFFFFFFFFFFFFFF8
:101EF100FFFFEF7DDFDBCE59CEF8CDD7CDF7C5792A
:101F0100CEFBBEABA203F045F842D043E800F0722D
:101F1100D4FFDF39AEE410E4100411E41005118799
:101F210029FFFFFFFFFFFFFFFFFFFFFFFF59CE83E9
:101F31000846211CD7FFF7FFFFFFFFFFFFFFFFFF51
:101F4100FFFFFFFFFFFFFFFFFFFFFFFFFFFFFFFFA0
:101F5100FFFFEF8BBA04F845F862E044F000F88E19
:101F6100DBFFDFF8A5C410E410E4100411E4102530
:101F710019FFFFFFFFFFFFFFFFFFFFFFFFBEF78717
:101F810029830839B6FFF7DFF7FFFFFFFFFFFFFFE8
:101F9100FFFFFFFFFFFFFFFFFFFFFFFFFFFFFFFF50
:101FA100FFBEE74ABA03F845F864F844F800F86E52
:101FB100E3FFD7F48C83080411E410E410E4100566
:101FC10019FFFFFFFFFFFFFFFFFFFFFFFFFFFFEF16
:101FD1007300007284FFEFBEEFDFFFFFFFFFFFFF23
:101FE100FFFFFFFFFFFFFFFFFFFFFFFFFFFFFFFF00
:101FF100FFDFE78BBA03F845F845F823F800F8D37B
:10200100D4FFD74E5B2100293A55A58308C410257A
:1020110019FFFFFFFFFFFFFFFFFFFFFFFFFFFFFBB9
:10202100DEA308E8319EDF9EE7BFEFFFFFFFFFFF62
:10203100FFFFFFFFFFFFFFFFFFFFFFFFFFFFFFFFAF
:10204100FFFFF751BC02E003F803F043E0ECC27E6E
:10205100CFFCBE46212100D394FFFF5184000087AD
:1020610029FFFFFFFFFFFFFFFFFFFFFFFFFFFFFF55
:10207100FF51840000F48CFFEF9EE7BFEFDFFFFF0D
:10208100FFFFFFFFFFFFFFFFFFFFFFFFFFFFFFFF5F
:10209100FFFFFF3DDF55BD52BC72BCB7B55DC7FF49
:1020A100DFF06B0000093ABFF7FFFFFFFF149D55FA
:1020B100A5FFFFFFFFFFFFFFFFFFFFFFFFFFFFFF89
:1020C100FFFFFFAC4AA408BBBEDFE77EE7BEEFDF40
:1020D100F7DFFFFFFFFFFFFFFFFFFFFFFFFFFFFF37
:1020E100FFDFFFDFF7FFEFDFDFBFD79ED7DFDFD8EF
:1020F100A583082611DBD6FFFFFFFFFFFFFFFFFFD0
:10210100FFFFFFFFFFFFFFFFFFFFFFFFFFFFFFFFDE
:10211100FF79EE8BDC2131A9213DCFBFDF7EDF9E30
:10212100E7BEEFBFEFDFF7DFF7DFF7DFF7DFF7BF7F
:10213100EFBEEF9EE77EDF5ED75ED7DFDF9AB62682
:10214100194208EDA3BFFFFFFFFFFFFFFFFFFFFFE6
:10215100FFFFFFFFFFFFFFFFFFFFFFFFFFFFFF7419
:10216100DDC0DB00FE42EE024289217BB6DFDF7E6D
:10217100D77EDF7EDF9EE79EE79EE79EE79EE77EB6
:10218100DF7EDF5DD75DD79EDFFFE7F8A50711E3AF
:102191001802C560FDE6D3DBEEFFFFFFFFFFFFFF87
:1021A100FFFFFFFFFFFFFFFFFFFFFFFFFF9EF78422
:1021B100BAC1FC42FE82FEA2FE8183452174745E97
:1021C100C7DFDF7ED75ED75DD75ED75ED75DD75DD0
:1021D100D75ED79EDFFFE73DC7F1638408425226F1
:1021E100E629FF86FEE0F36AC3FFFFFFFFFFFFFF63
:1021F100FFFFFFFFFFFFFFFFFFFFFFFFFF18DEC134
:10220100D2A2FD22FE42FE42FE62FEE2D4416A49B2
:102211004253743BA63EC7BFD7BFD7BFD7BFDFBFAF
:10222100D73EC71AA6F263A729824122B462FE8370
:10223100FEAAFE0FFF67FD63BA3CEFFFFFFFFFFF42
:10224100FFFFFFFFFFFFFFFFFFFFFFFFFF9AE6809A
:10225100D221FDC2FDE2F5C2F582F582FD62FD618A
:10226100DC219B846AE96A2C63AF6311746E632C71
:1022710063895A0452817AC2CBE2FC62FD82FDC2BB
:10228100FDC2FDE4FD24FD62CA1CE7FFFFFFFFFF65
:10229100FFFFFFFFFFFFFFFFFFFFFFFFFFFFFFB19B
:1022A100CC81D2C0F3C1FC02FD02FDE2FCC2FCC242
:1022B100FC81FC80FBC0C9A48135AD59CE719C2144
:1022C1008100DAA1FB82FCA2FC82FCA2FC02FD22BD
:1022D100FDE2FC00FC60DA90CCFFFFFFFFFFFFFF97
:1022E100FFFFFFFFFFFFFFFFFFFFFFFFFFFFFFFFFD
:1022F100FF59DE0DC406CBE4D203DB03DBE3DAC313
:10230100D2A4C209B3D2BC9EF7FFFFFFFFFFFFFBC0
:10231100E60EB4A6BA83D2E3E202EB22EB22E30398
:10232100DBE4D26AC3B6D5FFFFFFFFFFFFFFFFFF6C
:01233100FFAC
:0D60E6004A00DCF81FFFE0F80007E0001F93
:065407007BFF7A16799E7E
:10540D00900003EBF0A3EAF0A3E9F09000A4E0FA1A
:10541D00A3E0FB900011E4F0A37414F0A3E4F0A357
:10542D00741FF0E4FDFCFFFE1255F49000A6E0FEA3
:10543D00A3E0FF24ECFDEE34FFFC9000A4E0FAA302
:10544D00E0FB900011EEF0A3EFF0A3E4F0A3741FC6
:10545D00F0E4FFFE1255F474FF9000A0F0A3F0905D
:10546D00000CE4F0A3741FF0900003E0F9A3E0FA40
:10547D00A3E090000EC9F0A3EAF0A3E9F0A3741025
:10548D00F0A37401F074FFFBFA7D027C00E4FFFED3
:10549D00125C179000A7E024EEFD9000A6E034FF0B
:1054AD00FC90000CE4F0A3741FF0A374FFF0A37440
:1054BD0014F0A37491F0A37410F0A37401F074FFB1
:1054CD00FBFAE4FFFE125C179000A4E0FAA3E0FBE8
:1054DD009000A7E024ECFE9000A6E034FF900011B0
:1054ED00F0A3CEF0E4A3F0A3F07D14FCFFFE025573
:0154FD00F4BA
:10587F007BFF7A1479A012540D90000CE4F0A374FE
:10588F001FF0A374FFF0A37414F0A374B5F0A37406
:10589F0010F0A37401F07B007AF87D1E7C00E4FF0A
:1058AF00FE125C1790000CE4F0A3741FF0A374FFBA
:1058BF00F0A37414F0A374BEF0A37410F0A37401DA
:1058CF00F07B007AF87D3C7C00E4FFFE125C1790C1
:1058DF00000CE4F0A3741FF0A374FFF0A37414F092
:1058EF00A374CBF0A37410F0A37401F07BE07AFFE4
:1058FF007D5A7C00E4FFFE125C1790000CE4F0A3CD
:10590F00741FF0A374FFF0A37414F0A374E0F0A35A
:10591F007410F0A37401F07B1F7A007D787C00E493
:10592F00FFFE125C177FDC7E051261127FDC7E05A5
:03593F00026112F0
:103FE6007BFF7A1479FB12540D9000A4E0FAA3E04B
:103FF600FB9000A7E024ECFE9000A6E034FF9000C2
:1040060011F0A3CEF074FFA3F0A3F07D147C00E4BE
:10401600FFFE1255F49000A5E024CEFF9000A4E028
:1040260034FFFE90001974FFF0A374E0F0A374FF50
:10403600F0A37415F0A3740EF0A37410F0A374012A
:10404600F07B1F7A007D1E7C0012343A7FF47E01DD
:104056001261129000A4E0FAA3E0FB9000A7E0240E
:10406600ECFE9000A6E034FF900011F0A3CEF0E441
:10407600A3F0A3F07D14FCFFFE1255F49000A5E01A
:1040860024CEFF9000A4E034FFFE90001974FFF0E8
:10409600A374E0F0A374FFF0A37415F0A37414F0F6
:1040A600A37410F0A37401F07B1F7A007D1E7C00C0
:1040B60012343A7FF47E011261129000A4E0FAA352
:1040C600E0FB9000A7E024ECFE9000A6E034FF9011
:1040D6000011F0A3CEF0A374F8F0A3E4F07D14FC75
:1040E600FFFE1255F49000A5E024CEFF9000A4E058
:1040F60034FFFE90001974FFF0A374E0F0A374FF80
:10410600F0A37415F0A3741AF0A37410F0A374014D
:10411600F07B1F7A007D1E7C0012343A7FF47E010C
:104126001261129000A4E0FAA3E0FB9000A7E0243D
:10413600ECFE9000A6E034FF900011F0A3CEF0A3B1
:104146007407F0A374E0F07D147C00E4FFFE1255C2
:10415600F49000A5E024CEFF9000A4E034FFFE908A
:10416600001974FFF0A374E0F0A374FFF0A37415B4
:10417600F0A3741EF0A37410F0A37401F07B1F7AF1
:10418600007D1E7C0012343A7FF47E01126112908B
:1041960000A4E0FAA3E0FB9000A7E024ECFE900068
:1041A600A6E034FF900011F0A3CEF0A3E4F0A374D0
:1041B6001FF07D147C00E4FFFE1255F49000A5E08C
:1041C60024CEFF9000A4E034FFFE90001974FFF0A7
:1041D600A374E0F0A374FFF0A37415F0A37424F0A5
:1041E600A37410F0A37401F074FFFBFA7D1E7C002B
:0A41F60012343A7FF47E01026112D8
:1047F900E4900002F07BFF7A15792912540D90009C
:10480900A4E0FAA3E0FB9000A7E024ECFE9000A648
:10481900E034FF900011F0A3CEF074FFA3F0A3F0F1
:104829007D147C00E4FFFE1255F4E4900002F09040
:1048390000A4E0C313FEA3E01324B0FDEE34FFFC93
:10484900900002E0F975F00FA4FBAAF02DFFEA3CF5
:10485900FEC006C0079000A6E0C313FEA3E0132420
:10486900B0FFEE34FFCF2BFDEF3AFCC004C005903A
:1048790000A4E0C313FCA3E013FDE975F00FA42D18
:10488900FFE5F03CCF24ECFBEF34FFFAA3E0C313C0
:10489900FCA3E013FDE975F00FA42DFFE5F03CCF73
:1048A90024ECCF34FF900009F0A3EFF0D005D00439
:1048B900D007D006125AC4900002E025E024DCF5A6
:1048C90082E43400F583E0FFA3E09000A0CFF0A3D9
:1048D900EFF0900002E004F0E0C3940550030248B1
:1048E900387FDC7E051261129000A4E0FAA3E0FB98
:1048F9009000A7E024ECFE9000A6E034FF900011A0
:10490900F0A3CEF074FFA3F0A3F07D147C00E4FFC4
:10491900FE1255F4E4900002F09000A4E0C313FEE7
:10492900A3E01324B0FDEE34FFFC900002E0F9751A
:10493900F00FA4FBAAF02DFFEA3CFEC006C00790C9
:1049490000A6E0C313FEA3E01324B0FFEE34FFCFAB
:104959002BFDEF3AFCC004C0059000A4E0C313FC92
:10496900A3E013FDE975F00FA42DFFE5F03CCF247A
:10497900ECFBEF34FFFAA3E0C313FCA3E013FDE95A
:1049890075F00FA42DFFE5F03CCF24ECCF34FF9058
:104999000009F0A3EFF0D005D004D007D0061261CA
:1049A9005E900002E025E024DCF582E43400F58322
:1049B900E0FFA3E09000A0CFF0A3EFF0900002E0A9
:1049C90004F0E0C3940550030249227FDC7E05020E
:0249D900611269
:104B8500E4900002F07BFF7A15793F12540D9000F6
:104B9500A4E0FAA3E0FB9000A7E024ECFE9000A6B9
:104BA500E034FF900011F0A3CEF074FFA3F0A3F062
:104BB5007D147C00E4FFFE1255F4E4900002F090B1
:104BC50000A4E0C313FEA3E01324B0FDEE34FFFC04
:104BD500900002E0F975F019A4FBAAF02DFFEA3C5C
:104BE500FEC006C0079000A6E0C313FEA3E0132491
:104BF500CEFFEE34FFCF2BFDEF3AFCE925E024DCB8
:104C0500F582E43400F583E0FAA3E0FB900009E4C3
:104C1500F0A3741EF0E4A3F0A3F0D007D00612446D
:104C250018900002E004F0E0C3940540927FDC7E1A
:104C3500051261129000A4E0FAA3E0FB9000A7E042
:104C450024ECFE9000A6E034FF900011F0A3CEF016
:104C550074FFA3F0A3F07D147C00E4FFFE1255F46D
:104C6500E4900002F09000A4E0C313FEA3E0132437
:104C7500B0FDEE34FFFC900002E0F975F019A4FBDD
:104C8500AAF02DFFEA3CFEC006C0079000A6E0C3CF
:104C950013FEA3E01324CEFFEE34FFCF2BFDEF3A36
:104CA500FCE925E024DCF582E43400F583E0FAA391
:104CB500E0FB900009E4F0A3741EF0A3E4F0A30464
:104CC500F0D007D006124418900002E004F0E0C3CB
:0B4CD500940540917FDC7E0502611217
:1057B0007BFF7A15795512540D9000A074F8F0A370
:1057C000E4F09000A2F0A3741FF090000774FFF0C3
:1057D000A37415F0A37468F0E4A3F07B0C7D1EFCA9
:1057E0007F0AFE12594290000774FFF0A37415F06F
:1057F000A37488F0A37401F07B0C7D2D7C007F0ADC
:105800007E0012594290000774FFF0A37415F0A3B4
:1058100074A8F0E4A3F07B0C7D3CFC7F0AFE1259D7
:105820004290000774FFF0A37415F0A374C6F0E46F
:10583000A3F07B107D50FC7F0AFE125942900007B6
:1058400074FFF0A37415F0A374E3F0A37401F07B6C
:10585000107D647C007F0A7E00125942900007741C
:10586000FFF0A37415F0A374FFF0E4A3F07B107DA8
:0F58700078FC7F0AFE1259427FB07E040261125B
:105A04007BFF7A16791A12540D90001974FFF0A3D3
:105A140074E0F0A374FFF0A37416F0A3742DF0A344
:105A24007410F0E4A3F07B1FFA7D1EFC7F0AFE12C3
:105A3400343A90001974FFF0A374E0F0A374FFF0FB
:105A4400A37416F0A3744EF0A37410F0A37401F0C1
:105A54007B1F7A007D327C007F0A7E0012343A90EC
:105A6400001974FFF0A374E0F0A374FFF0A374169C
:105A7400F0A37464F0A37418F0A37401F07B1F7A8C
:105A8400007D467C007F0A7E0012343A900019742F
:105A9400FFF0A374E0F0A374FFF0A37416F0A374F2
:105AA40079F0A37420F0A37401F07B1F7A007D6465
:105AB4007C007F0A7E0012343A7FB07E04026112B9
:1054FE007BFF7A16798812540D9000A4E0FAA3E08F
:10550E00FB9000A7E024ECFE9000A6E034FF900094
:10551E0011F0A3CEF074FFA3F0A3F07D147C00E491
:10552E00FFFE1255F47BFF7A1679B27D1E7C007F4A
:10553E001E7E001256DD90001974FFF0A374E0F089
:10554E00A374FFF0A37416F0A3749BF0A37410F071
:10555E00A37401F07B1F7A007D4B7C007F2A7E00B6
:10556E0012343A7BFF7A1679B27D1E7C007F5A7E0A
:10557E00001256DD90001974FFF0A374E0F0A374CE
:10558E00FFF0A37416F0A3749BF0A37410F0A37431
:10559E0001F07B1F7A007D4B7C007F667E0012340B
:1055AE003A7BFF7A1679B27D1E7C007F967E0012C2
:1055BE0056DD90001974FFF0A374E0F0A374FFF0B1
:1055CE00A37416F0A3749BF0A37410F0A37401F0EF
:1055DE007B1F7A007D4B7C007FA27E0012343A7FC7
:0655EE00B07E0402611210
:103DA400E49000FAF0A3F0A3F0A3F0A3F0125407F8
:103DB4009000A5E024E8FF9000A4E034FFFE90000A
:103DC4000774FFF0A37416F0A374AEF0A37401F0AB
:103DD4007B10E4FDFC1259429000A4E0FCA3E0FD3A
:103DE40024CCFFEC34FFFEED24E2FBEC34FFFA902C
:103DF4000011E4F0A37412F0A374F8F0A3E4F07DCE
:103E040002FC1255F49000A074F8F0A3E4F0124FF1
:103E140074EF7003023FDC9000A4E0FEA3E0FF9087
:103E240000B5E0FCA3E0FDC39FEC9E50E19000A62A
:103E3400E0FEA3E0FF9000B7E0FAA3E0FBC39FEA33
:103E44009E50CB9000A5E024E8FF9000A4E034FF4E
:103E5400FED3ED9FEC9E407BEB9410EA94005073EC
:103E64001254079000FDE0FFA3E09000A0CFF0A360
:103E7400EFF09000A5E024E8FF9000A4E034FFFEFA
:103E840090000774FFF0A37416F0A374AEF0A3744B
:103E940001F07B10E4FDFC1259429000A4E0FCA365
:103EA400E0FD24CCFFEC34FFFEED24E2FBEC34FF18
:103EB400FA900011E4F0A37412F09000A0E0FDA3C6
:103EC400E0900013CDF0A3EDF07D027C001255F4D8
:103ED400023E129000A4E0FEA3E0FF24C4FDEE34F1
:103EE400FFFC9000B5E0FAA3E0FBD39DEA9C5003ED
:103EF400023FC0EF24E2FFEE34FFFEC3EB9FEA9ED5
:103F04004003023FC0C39000B8E094149000B7E0AF
:103F140094004003023FC09000A4E0FCA3E0FD2411
:103F2400CCFFEC34FFFEC006C007ED24E2FBEC340A
:103F3400FFFA900011E4F0A37412F09000FBE0FE8D
:103F4400A3E0FF7C007D05123215ED25E0FFEC3384
:103F5400FE74DC2FF58274003EF583E0FFA3E0904D
:103F64000013CFF0A3EFF0D007D0067D027C00123F
:103F740055F49000FBE475F001123280AFF0FE7C42
:103F8400007D05123215ED25E0FFEC33FE74DC2FC5
:103F9400F58274003EF583E0FFA3E09000A0CFF02B
:103FA400A3EFF09000A0E0FFA3E09000FDCFF0A30A
:103FB400EFF07F0A7E00126112023E129000B5E01B
:103FC400FEA3E0FFA3E0FCA3E0FD9000A0E0FAA3C1
:103FD400E0FB125DB0023E127F0A7E001261120203
:023FE4003E128B
:1000030000000000000000000000000000000404E5
:10001300040404040004000000140A0A00000000A1
:1000230000000000000014143F140A3F0A0A0000F5
:1000330000041E1505060C14150F0400000012150C
:100043000D0A142C2A1200000000040A0A1E1515BA
:100053000936000000020201000000000000000059
:1000630000201008080808080810200000020408EF
:10007300080808080804020000000004150E0E1505
:100083000400000000000404041F04040400000032
:100093000000000000000000000202010000000058
:1000A300001F00000000000000000000000000002E
:1000B3000002000000100808080404020202010004
:1000C30000000E1111111111110E000000000406A1
:1000D30004040404040E000000000E1111080402BD
:1000E300011F000000000E11100C1010110E000073
:1000F3000000080C0A0A091E0818000000001F016E
:10010300010F1010110E000000000E09010F111154
:10011300110E000000001F09080404040404000079
:1001230000000E11110E1111110E000000000E112E
:1001330011111E10120E0000000000000400000048
:10014300000400000000000000040000000404009C
:100153000020100804020408102000000000000022
:100163001F00001F000000000002040810201008F8
:100173000402000000000E11110804040004000032
:1001830000000E111915151D011E000000000404C6
:100193000C0A0A1E1233000000000F12120E121274
:1001A300120F000000001E1101010101110E0000D9
:1001B30000000F1212121212120F000000001F1281
:1001C3000A0E0A02121F000000001F120A0E0A0282
:1001D3000207000000001C1201013911120C00007B
:1001E30000003312121E12121233000000001F040B
:1001F30004040404041F000000003E080808080863
:1002030008090700000037120A060A0A123700001D
:100213000000070202020202223F000000001B1B33
:100223001B1B15151515000000003B1216161A1A94
:100233001217000000000E1111111111110E000010
:1002430000000F12120E02020207000000000E113E
:1002530011111117190E180000000F12120E0A12B5
:100263001237000000001E1101060810110F0000D4
:1002730000001F1504040404040E000000003312E0
:1002830012121212120C000000003312120A0A0C8E
:100293000404000000001515150E0A0A0A0A0000DE
:1002A30000001B0A0A04040A0A1B000000001B0AC0
:1002B3000A040404040E000000001F0908040402D9
:1002C300121F0000001C04040404040404041C00A2
:1002D300000202020404080808100000000E0808C7
:1002E3000808080808080E0000040A0000000000BF
:1002F3000000000000000000000000000000003FBC
:1003030000040000000000000000000000000000E6
:10031300000C121C123C000000000302020E121219
:10032300120E000000000000001C1202021C00005C
:1003330000001810101C1212123C000000000000F4
:10034300000C121E021C000000003804041E0404EA
:10035300041E000000000000003C120C021E221CC0
:1003630000000302020E1212123700000000040004
:1003730000060404040E000000000800000C080836
:100383000808080700000302023A0A0E12370000A9
:100393000000070404040404041F0000000000001C
:1003A300000F15151515000000000000000F1212B4
:1003B3001237000000000000000C1212120C0000A3
:1003C30000000000000F1212120E020700000000CE
:1003D300001C1212121C103800000000001B060241
:1003E3000207000000000000001E020C101E0000A7
:1003F30000000004040E04040418000000000000C0
:10040300001B1212123C0000000000000037120A09
:100413000C040000000000000015150E0A0A00007D
:1004230000000000001B0A040A1B0000000000007B
:100433000037120A0C04040300000000001E080425
:10044300041E00000018080808040808080818001B
:10045300080808080808080808080808000604042B
:100463000408040404040600022518000000000028
:100473000000000000000000000000000000000079
:100483000000000000000008080808080808000031
:100493001818000000486C2412000000000000003F
:1004A300000000000000002424247F1212127F1297
:1004B300121200000000081C2A2A0A0C1828282AF5
:1004C3002A1C080800000022251515152A58545423
:1004D300542200000000000C1212120A7625291182
:1004E300916E0000000606040300000000000000F7
:1004F3000000000000402010100808080808081039
:1005030010204000000204080810101010101008FA
:10051300080402000000000008086B1C1C6B08089C
:100523000000000000000000080808087F08080811
:1005330008000000000000000000000000000000B0
:10054300060604030000000000000000FE00000097
:100553000000000000000000000000000000000098
:100563000606000000008040402020101008080408
:100573000402020000000018244242424242424266
:1005830024180000000000080E08080808080808DE
:10059300083E00000000003C4242422020100804B4
:1005A300427E00000000003C4242201820404042AE
:1005B300221C0000000000203028242422227E2058
:1005C300207800000000007E0202021A264040420A
:1005D300221C0000000000382402021A2642424274
:1005E300241800000000007E2222101008080808CA
:1005F300080800000000003C424242241824424202
:10060300423C00000000001824424242645840402B
:10061300241C000000000000000018180000000067
:10062300181800000000000000000008000000008F
:100633000008080400000040201008040204081009
:10064300204000000000000000007F0000007F0049
:1006530000000000000000020408102040201008E1
:10066300040200000000003C4242464020101000FB
:10067300181800000000001C225A555555552D42EC
:10068300221C00000000000808181414243C224215
:1006930042E700000000001F2222221E22424242A3
:1006A300221F00000000007C4242010101010142BF
:1006B300221C00000000001F2242424242424242EA
:1006C300221F00000000003F4212121E12120242BB
:1006D300423F00000000003F4212121E12120202AB
:1006E300020700000000003C2222010101712122C7
:1006F300221C0000000000E7424242427E42424286
:1007030042E700000000003E08080808080808083F
:10071300083E00000000007C101010101010101094
:100723001010110F0000007722120A0E0A12122273
:100733002277000000000007020202020202020206
:10074300427F000000000077363636362A2A2A2AEE
:100753002A6B0000000000E346464A4A52525262A6
:10076300624700000000001C2241414141414141D8
:10077300221C00000000003F424242423E020202AD
:10078300020700000000001C2241414141414D533A
:10079300321C60000000003F4242423E12122222FD
:1007A30042C700000000007C42420204182040427D
:1007B300423E00000000007F4908080808080808B6
:1007C300081C0000000000E742424242424242420B
:1007D300423C0000000000E7424222242414141883
:1007E300080800000000006B494949495555362265
:1007F30022220000000000E74224241818182424B1
:1008030042E70000000000772222141408080808B9
:10081300081C00000000007E212010100804044280
:10082300423F00000078080808080808080808087C
:1008330008087800000002020404080808101020C9
:1008430020204040001E1010101010101010101027
:1008530010101E00003844000000000000000000DB
:100863000000000000000000000000000000000085
:10087300000000FF00060800000000000000000068
:1008830000000000000000000000003C42784442E9
:1008930042FC0000000000030202021A2642424208
:1008A300261A000000000000000000384402020283
:1008B3004438000000000060404040784442424217
:1008C30064D80000000000000000003C427E0202E9
:1008D300423C0000000000F08808087E0808080871
:1008E300083E0000000000000000007C22221C02E1
:1008F3003C42423C000000030202023A46424242AA
:1009030042E700000000000C0C00000E0808080875
:10091300083E000000000030300000382020202076
:100923002020221E0000000302020272120A161285
:10093300227700000000000E0808080808080808CD
:10094300083E0000000000000000007F9292929297
:1009530092B70000000000000000003B4642424204
:1009630042E70000000000000000003C4242424217
:10097300423C0000000000000000001B26424242EF
:10098300221E020700000000000000784442424299
:10099300447840E000000000000000774C040404A9
:1009A300041F0000000000000000007C42023C40E5
:1009B300423E0000000000000008083E0808080846
:1009C3000830000000000000000000634242424281
:1009D30062DC000000000000000000E74224241451
:1009E3000808000000000000000000EB49495555CD
:1009F30022220000000000000000007624181818CE
:100A0300246E000000000000000000E742242414CC
:100A130018080807000000000000007E22100808E4
:100A2300447E000000C02020202020102020202011
:100A33002020C000101010101010101010101010F3
:100A43001010101000060808080808100808080805
:100A5300080806000C32C20000000000000000007D
:100A630000000000C9EE000027FC140414A4811048
:100A730042084040104017FC2040E0E0215022484B
:100A83002C4620400040DBDA1104112411241124E8
:100A93001124FD24112411241124112411241D24B3
:100AA300E124422402040404CAD00200010000002D
:100AB3007FFC0100010001003FF821082108210803
:100AC30021082128211001000100C8AB000000000B
:100AD300018002400430180860061FF9010001007C
:100AE30001003FF80100010001007FFEB6AF0000E6
:100AF300000000203E20007C002200227F221022E2
:100B0300102212221222224223423D82009CB5E788
:100B13000000010001001FF0610C410441047FFC4F
:100B23004104410441047FFC01000102010201FC74
:100B3300D7D3000000003FF80010006000800100E0
:100B430000807FFE0040004000200020002018406D
:100B53000780BCBC00000000104013FE10407C4026
:100B6300104013FC1104190830885050106010D045
:100B730013087C06CAF500000100013001080100DA
:100B83007FFE018003400540052009101108210460
:100B9300410201000100D3D00000010002007FFEEA
:100BA300040008001FFC700490041FFC10041004D0
:100BB3001FFC10041004103CCFDE000000007BFC7F
:100BC3004A044A044BFC52044A044BFC4A404A443C
:100BD3007A2842304210420843C6B9AB00000000F5
:100BE30004400420081010101008210442020220BF
:100BF30004100810080810081FFC0004CBBE0000F6
:100C030000003FFC000400043FF400043FE4202400
:100C130020242024202420241FC40004007CBBB6ED
:100C23000000000000807EFC02A202A222A4152480
:100C330014240C300C300C481248228442840102E4
:100C4300D3AD000000002398246414440444644496
:100C5300144414441444144415C4125C1040284032
:100C630047FEC4FA00000000120013FE24222522CE
:100C7300652862242224242020E0050814842444C7
:100C8300241A47F2B4BF00000020102013FE2020D6
:100C930026244A247A241224222423FC7C200022A2
:100CA30004227822003CC9AB0000000004000FF0CE
:100CB300102020207FFC20842084208420843FF87F
:100CC3002000200220021FFECCEE00000000204086
:100CD30023FE204079FC220423FC220423FC22046B
:100CE30023FC3A0465FA01980204B3E4000001000E
:100CF30001007FFE02200410040808043FFC0442A4
:100D030004400440044208421042607EBED8000002
:100D13000000207E3E804880488048FE48827F82D3
:100D230008820C8214FA12842280218040FED0CEE5
:100D3300000000007F842208223022C02202220405
:100D43007FC8223022C222022204220822304040DD
:100D5300BBAD000000007FFE00000FF0111011106A
:100D6300111051125FF25112511251124FF24002FF
:100D73007FFCD4B2000000007FFE47E24812481215
:100D830047E24FF2501250125112511242924472E2
:100D9300580A3FFCCDBC000000003FFE440247F26E
:100DA3004C225362408243625E1A41824062430294
:100DB30040C240223FFCC6AC00000040204020401F
:100DC30020403FFE2000200020003FE020102010A4
:100DD3002010201040104010CFD4000000003FFC32
:100DE300200420043FFC200420041FF8244414485A
:100DF300144814480C5004407FFECABE0000000093
:100E03003FFC0000000000007FFE0080089008887F
:100E1300108810842084208240820780B2CB000097
:100E2300002008207FFE002000783F8811080890EA
:100E330009207FFE018003400D30310C4002B5A52F
:100E430000000010081004203FF8210421043FFC97
:100E5300210421043FF801007FFE0100010001008D
:100E6300D6D000000100010001003FFC2104210451
:100E730021042104210421043FFC0100010001009D
:100E83000100D3A20000000008207FFE08200920F3
:100E930001003FF82108210821081FF40140022026
:100EA3000C10700ECEC400000100010000803F7CD6
:100EB3000810081004100420022002400180018061
:100EC30002601C18E006D7DB00000000102011FEB2
:100ED3002202220249FC5800300013FE25287924FF
:100EE30001240D24722202A2BACF00000000018067
:100EF30002400430180860061FF800001FF82004A1
:100F030020042004200420041FF8C1C100000100B4
:100F130001007FFE00003FF820083FF83FF840063D
:100F230047C24824082008221022603EB6C80000A9
:100F3300000000803FFE44105FFC4410441043F067
:100F430040005FF84408423041C04360BC1EB2E237
:100F53000000000067C2145205520552C5522552C3
:100F63000552055215521752228222424442483EEC
:100F7300CAD4000000002014101417FE0012001041
:100F8300601013F0109010901090149214EA1F0A3E
:100F93000006B3CC0000000019FE72021202120216
:100FA3007DFC18001BFE3420502053FE102010201F
:100FB300102013FED0F20000000000803FFE40002E
:100FC30047FC4208413040C05FFE4042404240443B
:100FD300404840404440B5F70000000023FE122281
:100FE30002FA0222E22212FE1272128A128A128A72
:100FF30016BA1A421202040EB9E2000001000104FB
:1010030011080908091009207FFE04400440044028
:101013000440084208421042607CB0E60000000031
:1010230048FE4900490049007EFE4182414479441B
:10103300452845284510452846440382C8A8000092
:101043001000100013FC7D04110419041884348863
:101053005048505010201050108813041402CBF93C
:10106300000000003F7C204020403E40227E22447E
:10107300224422443E842084208440844104420448
:10108300C9EE0000000000001000000800080C7FFB
:10109300FC04401001C8A002186042301832231823
:1010A30012C30014030004030C047FF0080F80082C
:1010B3000B4078136018332018631818831C190326
:1010C30008180300000300000000DBDA0000000042
:1010D300000004100C04180C04108C04108C041071
:1010E3008C04108C04D08C3F108C04108C04108C56
:1010F30004108C04108C04108C04108C05F08C0EDE
:10110300208C78208C20408C00808C01000C020005
:101113000C000000CAD000000000000000300000F6
:10112300180000180800001C1FFFE000180000183A
:101133002007FFF0041820041820041820041820A6
:10114300041820041820041820041820041820046C
:1011530018E0041840001800001800000000D6D062
:101163000000000000000000000000000018000064
:1011730018000018000018003FFFFE301806301852
:10118300063018063018063018063FFFFE301806E2
:1011930000180000180000180000180000180000D4
:1011A3000000000000000000CEC4000000000000AA
:1011B300000000003800001C00000600FFFFFF06CF
:1011C30000300600300300600300600180C000C1EE
:1011D3008000E300003600001C0000770003C1E03C
:1011E3001E003C600007000000000000000000003B
:1011F3000000B2E200000000000000000000000058
:1012030040000321FF33398333118333019B33C1FF
:101213009B33719B33199B33019B33019B33119B8D
:101223003319B333303033306C0330C60363830375
:101233002E01BE000000000000000000CAD4000020
:10124300000000000000000000004000D83000CE85
:101253001800C21C00C001FFFF0000C0F800C01846
:1012630000C019FFC01818401818601918601B181F
:10127300611E18311C1FB139F01910000F00000056
:10128300000000000000D7D60000000000060000A8
:10129300000300000000C0000001C0C0000107C03F
:1012A3000001FF00021FFE0007F01C0007C07000D2
:1012B3000F00E0000E03F0001C0FF0003C0F700065
:1012C3003C00E0001800C0000000C0000000C000A7
:1012D3000000600000002000000037000001FF0054
:1012E300007FF80007F830001F80300000803000D6
:1012F30000C03000006060000018E000000FC00074
:101303000006000000000000CCE500000000000023
:101313000000000000C0000000E0002001B80070E1
:101323003FF80061FFC000C3030001C60600038C41
:10133300060003080C0006080C000E18183F1E10C8
:101343001BF31F903F0700803C1C0190707C0190B1
:1013530060FE01A0C3F801A00FD803A00818036022
:1013630000180340001803C000180380001803008E
:1013730000180000001800000010000000300000FA
:1013830000300000000000000000B2E20000000096
:10139300000000000000000000000000020C100824
:1013A300071FF80403BFF00201BC300303EC300352
:1013B300015C600300D8600300D860038098620377
:1013C30061B8430771B14306313243063376C3062E
:1013D3003A64C7063EECC0063E78C0063C30400681
:1013E3007C70000678E060067BFFF006F7C000061D
:1013F300E400000640000006000000060000007C38
:1014030000008FF000007C0000000000CAD4000040
:101413000000000000000000000000003F0000008A
:101423007F8000000180000000C0000000C00000B9
:1014330000CE038000CFFFC000DD41800FFE000718
:10144300FFFC000C00F000180FC03E19FF40F31121
:10145300BC6083307FE003B1FE2003338020037040
:101463000030036000100360001807C0000C07C0C1
:1014730000040780000201000003000000010000D7
:0E14830000000000000000000000000000005B
:1060B300900019FEE0FCA3E0FD900018E02DFD9098
:0D60C3000017E03CFC90001DE0FAA3E0FB9C
:1060D00090001FEAF0A3EBF0125E9090001FE0FE2C
:0660E000A3E0FF0261C60F
:0E55F40090000BEEF0A3EFF0A3ECF0A3EDF0AF
:1056020090000BE0FEA3E0FFC3EB9FFFEA9ECF24D6
:1056120001CF3400900015F0A3EFF090000DE0FEF2
:10562200A3E0FFC3900012E09FFF900011E09ECF25
:105632002401CF3400900017F0A3EFF090000DE0AA
:10564200FCA3E0FDEB24FFFBEA34FFFA900011E03B
:10565200FEA3E024FFFFEE34FF90003DF0A3EFF045
:1056620090000BE0FEA3E0FF125F57D292C293E4D8
:10567200FDFCD3900018E09D900017E09C4030E4C0
:10568200FBFAD3900016E09B900015E09A40199027
:105692000013E0F580C291D291A3E0F580C291D2CD
:1056A200910BBB00010A80DA0DBD00010C80C3D250
:1056B200939000A5E024FFFB9000A4E034FFFA9051
:1056C20000A7E024FFFE9000A6E034FF90003DF02A
:0B56D200A3CEF0E4FDFCFFFE025F57DA
:0E460E0090000BEEF0A3EFF0A3ECF0A3EDF0A4
:10461C00E4900015F0A3F0A3F0A3F090000BE0FEE3
:10462C00A3E0FFC3EB9FFFEA9E900019F0A3EFF00D
:10463C0090000DE0FAA3E0FBC3900012E09BFE900B
:10464C000011E09A90001BF0A3CEF090000BE0FF5D
:10465C00A3E0900023CFF0A3EFF0A3EAF0A3EBF0DC
:10466C00900019E0FEA3E0FFD39400EE64809480E8
:10467C00400A90001FE4F0A304F08021EF4E700874
:10468C0090001FF0A3F0801574FF90001FF0A3F0B2
:10469C00C3E49FFFE49E900019F0A3EFF090001B81
:1046AC00E0FEA3E0FFD39400EE64809480400A9077
:1046BC000021E4F0A304F08021EF4E70089000215B
:1046CC00F0A3F0801574FF900021F0A3F0C3E49FD9
:1046DC00FFE49E90001BF0A3EFF090001BE0FEA304
:1046EC00E0FF900019E0FCA3E0FDD39FEE6480F89E
:1046FC00EC64809890001D4007ECF0A3EDF0800571
:10470C00EEF0A3EFF0E4900013F0A3F090001EE0A5
:10471C002401FF90001DE03400FED3900014E09FB4
:10472C00900013E09E40030247F8900023E0FEA3A4
:10473C00E0FFA3E0FCA3E0FD1261A5900019E0FEF0
:10474C00A3E0FF900016E02FF0900015E03EF090F3
:10475C00001BE0FEA3E0FF900018E02FF090001784
:10476C00E03EF090001DE0FEA3E0FF900015E0FCA1
:10477C00A3E0FDD39FEE6480F8EC6480984020EDBC
:10478C009FFFEC9E900015F0A3EFF090001FE0FE51
:10479C00A3E0FF900024E02FF0900023E03EF09087
:1047AC00001DE0FEA3E0FF900017E0FCA3E0FDD3AA
:1047BC009FEE6480F8EC6480984020ED9FFFEC9EA7
:1047CC00900017F0A3EFF0900021E0FEA3E0FF9023
:1047DC000026E02FF0900025E03EF0900014E0045D
:0C47EC00F07006900013E004F002471883
:0147F800229E
:105AC400900007EAF0A3EBF0900003EEF0A3EFF0F0
:105AD400A3ECF0A3EDF0C007A3E0FAA3E0FB900071
:105AE40005E0FFA3E0900011CFF0A3EFF0D0071280
:105AF400460E900003E0FAA3E0FBFFAE02C007A34A
:105B0400E0FCA3E0FD900009E0FFA3E0900011CFCA
:105B1400F0A3EFF0D00712460E900009E0FCA3E0DA
:105B2400FD900007E0FAA3E0FBA3E0FFA3E09000F0
:105B340011CFF0A3EFF0900003E0FEA3E0FF1246C4
:105B44000E900007E0FAA3E0FBFFAE02C00790004E
:105B540005E0FCA3E0FD900009E0FFA3E090001144
:0A5B6400CFF0A3EFF0D00702460EC9
:10615E00C007900009E0FFA3E0900011CFF0A3EF7D
:10616E00F09000A0E0FFA3E0900013CFF0A3EFF0BB
:05617E00D0070255F4FA
:104E370090001BF0A3EFF0900007E0FFA3E09000C5
:0E4E47001DCFF0A3EFF0900003E0FEA3E0FF0C
:104E5500900017ECF0A3EDF0900015EEF0A3EFF045
:104E6500900019EAF0A3EBF02FFFEE3AA31260B61B
:104E7500900019E0FEA3E0FFC3900016E09FFF90AD
:104E85000015E09EFE90001B1260B7900019E0FE31
:104E9500A3E0FF900016E02FFF900015E03EFE9086
:104EA500001BE0FCA3E0FDC3900018E09DFD900011
:104EB50017E09C1260C7900019E0FEA3E0FFC390C5
:104EC5000016E09FFF900015E09EFE90001BE0FCA1
:104ED500A3E0FDC3900018E09DFD900017E09C1233
:104EE50060C790001BE0FEA3E0FF900016E02FFFD7
:104EF500900015E03E1260B390001BE0FEA3E0FFBA
:104F0500C3900016E09FFF900015E09E1260B390DD
:104F1500001BE0FEA3E0FF900016E02FFF900015B8
:104F2500E03EFE900019E0FCA3E0FDC3900018E010
:104F35009DFD900017E09C1260C790001BE0FEA34A
:104F4500E0FFC3900016E09FFF900015E09EFE90E5
:104F55000019E0FCA3E0FDC3900018E09DFD900062
:0F4F650017E09CFC90001DE0FAA3E0FB0260D077
:10441800900003EEF0A3EFF0A3ECF0A3EDF0A3EA15
:04442800F0A3EBF022
:10442C00E490000DF0A3F0900009E0FEA3E0FF90F3
:10443C00000FEEF0A3EFF025E0FFEE33FEC37403A4
:10444C009F900014F0E49E900013F090000BE0702D
:10445C0002A3E0700302455B90000FE0FEA3E0FFB7
:10446C0090000DE0FCA3E0FDD39FEE6480F8EC64BB
:10447C008098400302460D900011ECF0A3EDF090F3
:10448C00000FE0FEA3E0FFD3900012E09FEE6480EB
:10449C00F8900011E0648098502B900005E0FCA38C
:1044AC00E0FD90000DE0FAA3E0FB900011E0FFA30B
:1044BC00E0CF124E37900012E004F070C290001161
:1044CC00E004F080BA900013E0FCA3E0FDC3EC64C0
:1044DC00809480502390000DE0FEA3E07802C3335B
:1044EC00CE33CED8F92DFFEC3ECF2406CF3400903E
:1044FC000013F0A3EFF0804390000FE0FEA3E0FF69
:10450C00C390000EE09FFF90000DE09EFEEF78023E
:10451C00C333CE33CED8F9FF900014E02FFF9000B8
:10452C0013E03ECF240ACF3400F0A3EFF09000103C
:10453C00E024FFF090000FE034FFF090000EE00458
:10454C00F0600302446490000DE004F002446490B7
:10455C00000FE0FEA3E0FF90000DE0FAA3E0FBD318
:10456C009FEE6480F8EA648098400302460D900048
:10457C0005E0FCA3E0FDEE124E37900013E0FCA327
:10458C00E0FDC3EC64809480502390000DE0FEA30A
:10459C00E07802C333CE33CED8F92DFFEC3ECF24D6
:1045AC0006CF3400900013F0A3EFF0804390000F7F
:1045BC00E0FEA3E0FFC390000EE09FFF90000DE033
:1045CC009EFEEF7802C333CE33CED8F9FF900014A1
:1045DC00E02FFF900013E03ECF240ACF3400F0A36D
:1045EC00EFF0900010E024FFF090000FE034FFF0AB
:1045FC0090000EE004F0700690000DE004F002450F
:01460C005B52
:01460D00228A
:10420000F090001FE090002DF0900017E0FAA3E07E
:01421000FBB2
:10421100900023EEF0A3EFF0900027EAF0A3EBF07B
:08422100900025ECF0A3EDF084
:104229009000A0E0FFA3E0900031CFF0A3EFF09061
:10423900002BE024E0F0A3E0F9C313FF7E00900017
:1042490023E0FAA3E02FFFEE3ACF24FFFBEF34FF80
:10425900FAE9FFA3E0F8A3E02FFFEE38CF24FFCF60
:1042690034FF90003DF0A3EFF0900023E0FEA3E0BF
:10427900FF125F5790002DE0600302432090002F4A
:10428900F090002CE0FF90002FE0FEC39F40030256
:1042990043DFEFB40C1790002BE075F00CA4240356
:1042A900F582E5F03400F583E5822E801A90002F1F
:1042B900E0FF90002BE075F010A42477F582E5F07B
:1042C9003404F583E5822FF582E43583F583E4939D
:1042D90090002EF0E4900030F090002CE0C313FF22
:1042E900900030E0C39F502690002EE030E005900A
:1042F90000278003900029E0FEA3E0FF1261C69029
:10430900002EE0C313F0900030E004F080CB900061
:104319002FE004F002428AE490002FF090002CE094
:10432900FF90002FE0FEC39F40030243DFEFB40C70
:104339001790002BE075F00CA42403F582E5F03406
:1043490000F583E5822E801A90002FE0FF90002B64
:10435900E075F010A42477F582E5F03404F583E5DF
:10436900822FF582E43583F583E49390002EF0E4FF
:10437900900030F090002CE0C313FF900030E0FE75
:10438900C39F5049900027E0FDA3E09000A0CDF025
:10439900A3EDF090002EE030E024EEFF900024E041
:1043A9002FFF900023E03400FE90002FE0FD9000E5
:1043B90026E02DFD900025E03400FC1261A5900057
:1043C9002EE0C313F0900030E004F080A790002F96
:1043D900E004F0024325900031E0FFA3E09000A043
:1043E900CFF0A3EFF09000A5E024FFFB9000A4E03C
:1043F90034FFFA9000A7E024FFFE9000A6E034FF06
:0F44090090003DF0A3CEF0E4FDFCFFFE025F57F4
:10594200900002EEF0A3EFF0A3ECF0A3EDF0A3EBD6
:10595200F0900007E0FBA3E0FAA3E0F91231BDFFEB
:10596200D3947E4003025A03EFC394205003025A99
:10597200039000A5E024FFFD9000A4E034FFFC901A
:105982000002E0FEA3E0FFD39DEE9C50749000A7BE
:10599200E024FFFB9000A6E034FFFA900004E0FC54
:1059A200A3E0FDD39BEC9A50589000A2E0FBA3E049
:1059B200900029CBF0A3EBF0900007E0FBA3E0FA04
:1059C200A3E0F91231BD90002BF0900006E09000A8
:1059D2002CF090000AE090002DF09000A012420CF2
:1059E200900006E0C313FF900003E02FF090000246
:1059F200E03400F0900008E475F00112326A0259B6
:025A020053222D
:085FF8009000EEEFF0A3EDF0C4
:10600000A31233FD000000019000EFE0FF14F0EF59
:106010006020A3E0F8A3E0F9A3E0FAA3E0FB90007E
:10602000EEE0FFE4FCFDFE1232B59000F01233F119
:1060300080D69000F0E0FCA3E0FDA3E0FEA3E0FF2B
:01604000223D
:0E52F6009000CFEEF0A3EFF0A3ECF0A3EDF0EC
:10530400E49000DBF09000D9F09000D7E0FF90002B
:10531400D9E0FEC39F4003025406C3EF9E14FD7FF1
:105324000A125FF8A804A905AA06AB079000D3E007
:10533400FCA3E0FDA3E0FEA3E0FF123340E47B0AFC
:10534400FAF9F81233409000DAEBF0A3E0705790CA
:1053540000D7E014FF9000D9E0FEC39F5048A3E0BB
:10536400703E9000D8E0F9C3138EF0A4FF9000D0F3
:10537400E02FFF9000CFE035F0FEC0079000D1E0B1
:10538400FCA3E0FD9000A0E0FAA3E0FB9000A2E003
:10539400FFA3E0900029CFF0A3EFF0A37420804D89
:1053A4009000DB7401F09000D8E0F9C313FFA3E090
:1053B400FEEF8EF0A4FF9000D0E02FFF9000CFE02E
:1053C40035F0FEC0079000D1E0FCA3E0FD9000A002
:1053D400E0FAA3E0FB9000A2E0FFA3E0900029CF55
:1053E400F0A3EFF09000DAE0243090002BF0A3E972
:1053F400F0E4A3F0D0071242119000D9E004F002C7
:02540400530D46
:015406002283
:1036DB00900025ECF0A3EDF0A3EAF0A3EBF0900043
:0636EB0023EEF0A3EFF056
:1036F100900035EEF0A3EFF0900033E4F0A3742EC8
:10370100F0E4900031F0A3F0900033E0FEA3E0FF7D
:10371100900031E0FCA3E0FDC39FEC9E4003023822
:10372100F490002BE0FBA3E0FAA3E0F91231BDFF16
:10373100900A6775F022ED12342EEC75F022A42563
:1037410083F583E4936F60030238E3900001123143
:10375100D6FF900031A3E0900A6875F02212342E52
:10376100EC75F022A42583F583E4936F600302389E
:10377100E3900023E0FAA3E0FBFFAE02C006C0071E
:10378100A3E0FCA3E0FDEB240FFBE43AFA90002553
:10379100E0FEA3E0240FFFE43E90003DF0A3EFF034
:1037A100D007D006125F57E490002FF0E49000306C
:1037B100F0900030E0FFC3940840030238D4900039
:1037C1002EE0705AA3E0FE900031E0FCA3E0900AE5
:1037D1006975F02212342EEC75F022A42583F5834D
:1037E100E5822EF582E43583F583E493FD3395E09C
:1037F100FC74807E00A807088006CEA2E713CE13D2
:10380100D8F8FFEE5CFEEF5D4E6005900027800367
:10381100900029E0FEA3E0FF1261C60238CB9000C0
:1038210027E0FFA3E09000A0CFF0A3EFF090002FDE
:10383100E0FF900031E0FCA3E0900A6975F02212EC
:10384100342EEC75F022A42583F583E5822FF582D1
:10385100E43583F583E493FD3395E0FC900030E09B
:10386100FF74807E00A807088006CEA2E713CE135E
:10387100D8F8FFEE5CFEEF5D4E6011900023E0FE94
:10388100A3E0FFA3E0FCA3E0FD1261A5900024E00A
:1038910004F07006900023E004F0900035E0FEA3F0
:1038A100E0FFC3900024E09FFD900023E09EFCED2B
:1038B10064104C7015EEF0A3EFF0900026E004F0D8
:1038C1007011900025E004F08009900030E004F0D0
:1038D1000237B290002FE004F0E0C39420500302BD
:1038E10037AD900032E004F07006900031E004F052
:1038F1000237099000A5E024FFFB9000A4E034FF0B
:10390100FA9000A7E024FFFE9000A6E034FF9000AB
:0D3911003DF0A3CEF0E4FDFCFFFE025F5789
:10391E00900025ECF0A3EDF0A3EAF0A3EBF09000FD
:06392E0023EEF0A3EFF010
:10393400900035EEF0A3EFF0900033E4F0A37407A9
:10394400F0E4900031F0A3F0900033E0FEA3E0FF38
:10395400900031E0FCA3E0FDC39FEC9E4003023BDA
:103964003790002BE0FBA3E0FAA3E0F91231BDFF8E
:1039740090108375F04AED12342EEC75F04AA425AC
:1039840083F583E4936F6003023B269000011231B8
:10399400D6FF900031A3E090108475F04A12342EC3
:1039A400EC75F04AA42583F583E4936F6003023B2E
:1039B40026900023E0FAA3E0FBFFAE02C006C00796
:1039C400A3E0FCA3E0FDEB2417FBE43AFA90002506
:1039D400E0FEA3E02417FFE43E90003DF0A3EFF0E7
:1039E400D007D006125F57E490002FF0E490003027
:1039F400F0900030E0FFC394084003023B179000AE
:103A04002EE0705AA3E0FE900031E0FCA3E0901099
:103A14008575F04A12342EEC75F04AA42583F5839B
:103A2400E5822EF582E43583F583E493FD3395E056
:103A3400FC74807E00A807088006CEA2E713CE138C
:103A4400D8F8FFEE5CFEEF5D4E6005900027800322
:103A5400900029E0FEA3E0FF1261C6023B0E900035
:103A640027E0FFA3E09000A0CFF0A3EFF090002F99
:103A7400E0FF900031E0FCA3E090108575F04A125D
:103A8400342EEC75F04AA42583F583E5822FF58264
:103A9400E43583F583E493FD3395E0FC900030E056
:103AA400FF74807E00A807088006CEA2E713CE1319
:103AB400D8F8FFEE5CFEEF5D4E6011900023E0FE4F
:103AC400A3E0FFA3E0FCA3E0FD1261A5900024E0C5
:103AD40004F07006900023E004F0900035E0FEA3AB
:103AE400E0FFC3900024E09FFD900023E09EFCEDE6
:103AF40064184C7015EEF0A3EFF0900026E004F08B
:103B04007011900025E004F08009900030E004F08A
:103B14000239F590002FE004F0E0C394485003020A
:103B240039F0900032E004F07006900031E004F0C7
:103B340002394C9000A5E024FFFB9000A4E034FF80
:103B4400FA9000A7E024FFFE9000A6E034FF900066
:0D3B54003DF0A3CEF0E4FDFCFFFE025F5744
:103B6100900025ECF0A3EDF0A3EAF0A3EBF09000B8
:063B710023EEF0A3EFF0CB
:103B7700900035EEF0A3EFF0900033E4F0A3740467
:103B8700F0E4900031F0A3F0900033E0FEA3E0FFF3
:103B9700900031E0FCA3E0FDC39FEC9E4003023D93
:103BA7007A90002BE0FBA3E0FAA3E0F91231BDFF06
:103BB70090128975F082ED12342EEC75F082A425EF
:103BC70083F583E4936F6003023D6990000112312E
:103BD700D6FF900031A3E090128A75F08212342E3E
:103BE700EC75F082A42583F583E4936F6003023DAF
:103BF70069900023E0FAA3E0FBFFAE02C006C0070E
:103C0700A3E0FCA3E0FDEB241FFBE43AFA900025B8
:103C1700E0FEA3E0241FFFE43E90003DF0A3EFF099
:103C2700D007D006125F57E490002FF0E4900030E1
:103C3700F0900030E0FFC394084003023D5A900023
:103C47002EE0705AA3E0FE900031E0FCA3E0901252
:103C57008B75F08212342EEC75F082A42583F583E0
:103C6700E5822EF582E43583F583E493FD3395E011
:103C7700FC74807E00A807088006CEA2E713CE1347
:103C8700D8F8FFEE5CFEEF5D4E60059000278003DD
:103C9700900029E0FEA3E0FF1261C6023D519000AB
:103CA70027E0FFA3E09000A0CFF0A3EFF090002F54
:103CB700E0FF900031E0FCA3E090128B75F08212D8
:103CC700342EEC75F082A42583F583E5822FF582E7
:103CD700E43583F583E493FD3395E0FC900030E011
:103CE700FF74807E00A807088006CEA2E713CE13D4
:103CF700D8F8FFEE5CFEEF5D4E6011900023E0FE0A
:103D0700A3E0FFA3E0FCA3E0FD1261A5900024E07F
:103D170004F07006900023E004F0900035E0FEA365
:103D2700E0FFC3900024E09FFD900023E09EFCEDA0
:103D370064204C7015EEF0A3EFF0900026E004F03D
:103D47007011900025E004F08009900030E004F045
:103D5700023C3890002FE004F0E0C3948050030247
:103D67003C33900032E004F07006900031E004F03C
:103D7700023B8F9000A5E024FFFB9000A4E034FFF6
:103D8700FA9000A7E024FFFE9000A6E034FF900021
:0D3D97003DF0A3CEF0E4FDFCFFFE025F57FF
:10343A00900015ECF0A3EDF0A3EAF0A3EBF09000F6
:06344A0013EEF0A3EFF009
:10345000900020EEF0A3EFF0E4A3F090001BE0FB5F
:10346000A3E0FAA3E0F91231BD70030236DA90004E
:1034700022E0600302359C90001EE0FFC313FDC3F1
:103480009000A5E09DFD9000A4E09400FCD3900086
:1034900014E09D900013E09C40030236DAC39000D4
:1034A000A7E09FFF9000A6E09400FE900015E0FCCE
:1034B000A3E0FDD39FEC9E40030236DA90001BE0B0
:1034C000FBA3E0FAA3E0F91231BDFFD394804008DA
:1034D0009000227401F08083EFB40D2E90001EE066
:1034E000FF900016E02FF0900015E03400F09000FF
:1034F00020E0FFA3E0900013CFF0A3EFF090001CBA
:10350000E475F00112326A02358F90001EE0D39408
:1035100010900013E0FEA3E0FF402F900019E0FBA5
:10352000A3E0900029CBF0A3EBF090001BE0FBA3FD
:10353000E0FAA3E0F91231BD90002BF0A374101251
:103540004200900014E02408803DA3E0FCA3E0FDCD
:10355000900019E0FBA3E0900029CBF0A3EBF090E2
:10356000001BE0FBA3E0FAA3E0F91231BD90002BB1
:10357000F090001EE090002C12420090001EE0C36C
:1035800013FF900014E02FF0900013E03400F0904F
:10359000001CE475F00112326A02345B90001EE0F8
:1035A000F9FF7E00C39000A5E09FFD9000A4E09E7F
:1035B000FCD3900014E09D900013E09C4003023681
:1035C000DAC39000A7E09FFF9000A6E09EFE900067
:1035D00015E0FCA3E0FDD39FEC9E40030236DAE445
:1035E000900022F0E9B42042900013E0FEA3E0FF37
:1035F000900019E0FBA3E0900029CBF0A3EBF09042
:10360000001BE0F9A3E0FAA3E090002BC9F0A3EAC5
:10361000F0A3E9F090001FE090002EF0900017E07A
:10362000FAA3E0FB123B610236BB90001EE0641877
:103630009000137044E0FEA3E0FFA3E0FCA3E0FDD4
:10364000900019E0FBA3E0900029CBF0A3EBF090F1
:10365000001BE0F9A3E0FAA3E090002BC9F0A3EA75
:10366000F0A3E9F090001FE090002EF0900017E02A
:10367000FAA3E0FB12391E8042E0FEA3E0FFA3E0C4
:10368000FCA3E0FD900019E0FBA3E0900029CBF043
:10369000A3EBF090001BE0F9A3E0FAA3E090002B6D
:1036A000C9F0A3EAF0A3E9F090001FE090002EF02B
:1036B000900017E0FAA3E0FB1236DB90001CE475E3
:1036C000F00212326A90001EE0FF900014E02FF02A
:0A36D000900013E03400F002345BB8
:0136DA0022CD
:105C1700900006EEF0A3EFF0A3ECF0A3EDF0A3EAFB
:045C2700F0A3EBF00B
:105C2B0090000EE0FBA3E0FAA3E0F912625BEF78C1
:105C3B0003C333CE33CED8F9FFC39000A5E09FFF4B
:105C4B009000A4E09EC313FEEF13FF900007E02F1C
:105C5B00FF900006E03EFE900008E0FCA3E0FD9004
:105C6B00000CE0FBA3E0900019CBF0A3EBF090004D
:105C7B000EE0F9A3E0FAA3E090001BC9F0A3EAF051
:105C8B00A3E9F0900011E090001EF0900012E0905C
:0E5C9B00001FF090000AE0FAA3E0FB02343A8A
:1056DD00900002EEF0A3EFF0900006EBF0A3EAF0DD
:0B56ED00A3E9F0900004ECF0A3EDF046
:1056F800900002E0FAA3E0FFAE02C006C00724272C
:10570800FBE43AFAA3E0FEA3E02427FFE43E90007E
:105718003DF0A3EFF0D007D006125F57E4900009E0
:10572800F0A3F090000AE025E0FF900009E033FEC6
:10573800900006E0FBA3E0FAA3E0F98F828E8312C3
:1057480031D690000CF0E92FF9EA3EFA90000112E8
:1057580031D690000BF0FEA3E0FDEDFF1261C6907C
:10576800000AE004F07006900009E004F0C390001D
:105778000AE09440900009E06480948640A5900077
:10578800A5E024FFFB9000A4E034FFFA9000A7E016
:1057980024FFFE9000A6E034FF90003DF0A3CEF079
:0857A800E4FDFCFFFE025F5767
:10611200E4FDFCC3ED9FEE6480F8EC6480985015BA
:10612200E4FBFA0BBB00010ABA03F8BBE8F50DBDAC
:0561320000010C80DEFD
:016137002245
:10613800E4FDFCC3ED9FEE6480F8EC648098501594
:10614800E4FBFA0BBB00010AEB64014A70F50DBDD4
:0561580000010C80DED7
:01615D00221F
:03000000025CA9F6
:0C5CA900787FE4F6D8FD758107025CF0FE
:10607B0056583A0056793A004348583A0043485923
:10608B003A0041646A757374204F4B2100546F754D
:10609B00636820416E79776865726520546F204381
:0860AB006F6E74696E756500EB
:1060F3004200BD2C734200BF1E134200B10F284261
:0461030000B300EAFB
:0662A100A2C0E433FF225D
:09629800D2B7D2B6D2B4D2B622BC
:1061FD00E4FEC2B6EF25E0FF92B4C2B6000000D2B5
:09620D00B60000000EEEB408EB2F
:016216002265
:10618300E4FDFFFEEF25E0FFEE33FED2B600000094
:10619300C2B600000030B504EF4401FF0DEDB40CAE
:0161A300E318
:0161A40022D8
:10621700C2B71261FDD2B600000000C2B60000008E
:0662270000126183D2B7F2
:01622D00224E
:024CE000A90722
:104CE200E490009CF0A3F0FBFAAF01126217AC064D
:104CF200AD07EB25E0FFEA33FE747E2FF5827400E8
:104D02003EF583ECF0A3EDF00BBB00010AEB640F60
:104D12004A70D6E4FAFBEB2401FEE43A90007CF000
:104D2200A3CEF090007CE0FEA3E0FFC3940FEE94CC
:104D3200004003024DDCEF25E0FFEE33FE747E2FD0
:104D4200F58274003EF583E0FCA3E0FDEB25E0FF75
:104D5200EA33FE747E2FF58274003EF583E0FEA3F3
:104D6200E0FFD39DEE9C405E90009EEEF0A3EFF03C
:104D720090007DE025E0FF90007CE033FE747E2F02
:104D8200F58274003EF583E0FCA3E0FDEB25E0FF35
:104D9200EA33FE747E2FF58274003EF583ECF0A3B5
:104DA200EDF090009EE0FCA3E0FD90007DE025E0A8
:104DB200FF90007CE033FE747E2FF58274003EF596
:104DC20083ECF0A3EDF090007DE004F06003024D6F
:104DD2002590007CE004F0024D250BBB00010AEB9C
:104DE200640E4A6003024D18E490009CF0A3F0FAAE
:104DF2007B05EB25E0FFEA33FE747E2FF58274001B
:104E02003EF583E0FEA3E0FF90009DE02FF09000CE
:104E12009CE03EF00BBB00010AEB640A4A70D3909F
:104E2200009CE0FEA3E0FF7C007D05123215A3EE9C
:044E3200F0A3EFF00A
:014E36002259
:0B5EF4009000E6EBF0A3EAF0A3E9F059
:105EFF007FD0124CE09000ECEEF0A3EFF07F901209
:105F0F004CE0C39000EDE094649000ECE09400400E
:105F1F0008EF9464EE940050037F00229000ECE0B1
:105F2F00F9A3E0FD9000E6E0FBA3E0FAA3E0C98D42
:105F3F00F01232969000E9E0FBA3E0FAA3E0F9EE4D
:075F4F008FF01232967F0172
:015F56002228
:0B50AD009000C1EBF0A3EAF0A3E9F0D3
:1050B8009000E97401F0A37400F0A374C9F07B01B7
:1050C8007A0079C7125EF4EF7002FF229000E9744B
:1050D80001F0A37400F0A374CDF07B017A0079CBC2
:1050E800125EF4EF7002FF229000C7E0FEA3E0FF1B
:1050F8009000CBE0FCA3E0FDD39FEC9E500EED2486
:1051080014FDE43CFCC3EF9DEE9C402A9000CBE0EC
:10511800FEA3E0FF9000C7E0FCA3E0FDD39FEC9E58
:1051280040030251DBED2414FDE43CFCC3EF9DEE8B
:105138009C40030251DB9000C9E0FEA3E0FF900011
:10514800CDE0FCA3E0FDD39FEC9E500EED2414FDB2
:10515800E43CFCC3EF9DEE9C40249000CDE0FEA310
:10516800E0FF9000C9E0FCA3E0FDD39FEC9E5063F4
:10517800ED2414FDE43CFCC3EF9DEE9C50559000DB
:10518800CBE0FEA3E0FF9000C8E02FFF9000C7E04F
:105198003EC313F9EF13FF9000C1E0FBA3E0FAA3AD
:1051A800E0C98FF01232969000CDE0FEA3E0FF90A8
:1051B80000CAE02FFF9000C9E03EC313F9EF13FFC8
:1051C8009000C4E0FBA3E0FAA3E0C98FF012329686
:0551D8007F01227F00B1
:0151DD0022AF
:105D3500E49000FFF09000FFE0706A9000C47401E9
:105D4500F0A37400F0A374BBF07B017A0079B9125B
:105D550050ADEF60E67F0A7E001261129000C474B8
:105D650001F0A37401F0A37402F07B017A017900BC
:105D75001250ADEF60E6900100E0FEA3E0FF900059
:105D8500B9E0B506B0A3E0B507AB900102E0FEA30C
:105D9500E0FF9000BBE06E7003A3E06F709790008A
:0A5DA500FF04F080909000FFE0FF83
:015DAF0022D1
:1051DE00900104EEF0A3EFF0A3ECF0A3EDF090003D
:1051EE00A074F8F0A3E4F0900104E0FAA3E0FB242D
:1051FE00F4FFEA34FFFEC007EB240DFBE43AFAA3FA
:10520E00E0FFA3E0900011CFF0A3EFF0D00712461D
:10521E000E900104E0FAA3E0FBFFAE02C006C00749
:10522E00900107E024F4FD900106E034FFFCE0FE5F
:10523E00A3E0240DFFE43E900011F0A3EFF0D007A1
:10524E00D00612460E900105E02401FF900104E005
:10525E003400FE900107E02401FD900106E03400C9
:10526E00FC1261A5900105E024FFFF900104E034DB
:10527E00FFFE900107E02401FD900106E03400FCE2
:10528E001261A5900105E02401FF900104E03400B5
:10529E00FE900107E024FFFD900106E034FFFC12B2
:1052AE0061A5900105E024FFFF900104E034FFFEAC
:1052BE00900107E024FFFD900106E034FFFC12612F
:1052CE00A5900104E0FEA3E0FFA3E0FCA3E0FD90A7
:1052DE0000A0E0FAA3E0FB900009E4F0A37406F04E
:0852EE00E4A3F0A3F002441850
:105DB000900108EEF0A3EFF0A3ECF0A3EDF0AF0339
:105DC0009000A0EAF0A3EFF0900108E0FEA3E0FF4E
:105DD0001261A5900109E02401FF900108E0340060
:105DE000FE90010AE0FCA3E0FD1261A5900108E02D
:105DF000FEA3E0FF90010BE02401FD90010AE034D6
:105E000000FC1261A5900109E02401FF900108E067
:105E10003400FE90010BE02401FD90010AE0340003
:045E2000FC0261A57A
:104F7400E490010CF07B019000C404F0A37400F0F1
:104F8400A374BBF07A0079B91250ADEF70030250EC
:104F94007190010C7401F09000B1E0FEA3E0FFD326
:104FA4009000BAE09F9000B9E09E400BAB07AA06C0
:104FB400E0FEA3E0FF80139000B9E0FEA3E0FBAAAB
:104FC400069000B1E0FEA3E0FFC3EF9BFFEE9AFE64
:104FD400E49400FDE49400FCE47BE87A03F9F8121D
:104FE40032B5C006C0079000BDE0FEA3E0FBAA06F0
:104FF400E4F9F8D007D0061233409000B5EEF0A3E0
:10500400EFF09000B3E0FEA3E0FFD39000BCE09F7C
:105014009000BBE09E400BAB07AA06E0FEA3E0FFB6
:1050240080139000BBE0FEA3E0FBAA069000B3E06F
:10503400FEA3E0FFC3EF9BFFEE9AFEE49400FDE4C1
:105044009400FCE47BE87A03F9F81232B5C006C098
:10505400079000BFE0FEA3E0FBAA06E4F9F8D0073E
:10506400D0061233409000B7EEF0A3EFF09000B5F5
:10507400E0FEA3E0FFA3E0FDA3E09000B5CDF0A324
:10508400EDF0A3EEF0A3EFF09000B5E0FEA3E0FF97
:10509400C39000A5E09FFF9000A4E09E9000B5F0AF
:0850A400A3EFF090010CE0FF06
:0150AC0022E1
:10233200E490007BF0F09000A0F0A3741FF074FF13
:102342009000A2F0A3F0FFFE125B6E9000A074F862
:10235200F0A3E4022AD620C0FD125D35EF60429060
:1023620000B9E0FEA3E0FFE4FCFD90007BE0FB751A
:10237200F008A4245BF582E43400F5831233F19073
:1023820000BBE0FEA3E0FFE4FCFDEB75F008A42433
:102392005FF582E43400F5831233F190007BE004B0
:1023A200F090007BE024FE602914604514606B24E9
:1023B2000370A374FFFFFE125B6E30C0FD9000A598
:1023C200E024CDFF9000A4E034FFFE7D327C0002C9
:1023D2002AE674FFFFFE125B6E30C0FD9000A7E09C
:1023E20024CDFD9000A6E034FFFC7F327E00022A5D
:1023F200E674FFFFFE125B6E30C0FD9000A5E02484
:10240200CDFF9000A4E034FFFE9000A7E024CDFDB4
:102412009000A6E034FFFC022AE674FFFFFE125B86
:102422006E30C0FD90005BE0FCA3E0FDA3E0FEA3E4
:10243200E0FF900063E0F8A3E0F9A3E0FAA3E0FB79
:10244200D31233E0403490005BE0F8A3E0F9A3E05C
:10245200FAA3E0FB900063E0FCA3E0FDA3E0FEA38F
:10246200E09BFFEE9AFEED99FDEC98FCEF2401FF54
:10247200E43EFEE43DFDE43C8036900063E0F8A3D8
:10248200E0F9A3E0FAA3E0FB90005BE0FCA3E0FD2F
:10249200A3E0FEA3E0C39BFFEE9AFEED99FDEC984C
:1024A200FCEF24FFFFEE34FFFEED34FFFDEC34FFC2
:1024B200FCE47BE87A03F9F81232B5C006C0079053
:1024C20000A5E0249CFF9000A4E034FFAB07FAE4EF
:1024D200F9F8D007D006123340E41230FE90003FE4
:1024E2001233F190005BE0FCA3E0FDA3E0FEA3E069
:1024F200FF900063E0F8A3E0F9A3E0FAA3E0FBD3C6
:102502001233E0E4FFFE7D487C4290003FE0F8A3F6
:10251200E0F9A3E0FAA3E0FB4034122EDFE4FBFA79
:10252200797A7844122FE8C004C005C006C007902B
:10253200005BE0FCA3E0FDA3E0FEA3E0FFE41230B9
:10254200FED003D002D001D000122DEA8032122E2A
:10255200DFE4FBFA797A7844122FE8C004C005C0A0
:1025620006C00790005BE0FCA3E0FDA3E0FEA3E051
:10257200FFE41230FED003D002D001D000122DEEC3
:1025820012313C90004FEEF0A3EFF090005FE0FCC0
:10259200A3E0FDA3E0FEA3E0FF90006FE0F8A3E05C
:1025A200F9A3E0FAA3E0FBD31233E0401D90005FF1
:1025B200E0F8A3E0F9A3E0FAA3E0FB90006FE0FCEF
:1025C200A3E0FDA3E0FEA3E0801C90006FE0F8A36F
:1025D200E0F9A3E0FAA3E0FB90005FE0FCA3E0FDDA
:1025E200A3E0FEA3E0C39BFFEE9AFEED99FDEC98FB
:1025F200FCEF24FFFFEE34FFFEED34FFFDEC34FF71
:10260200FCE47BE87A03F9F81232B5C006C0079001
:1026120000A7E0249CFF9000A6E034FFAB07FAE499
:10262200F9F8D007D006123340E41230FE9000478A
:102632001233F190005FE0FCA3E0FDA3E0FEA3E013
:10264200FF90006FE0F8A3E0F9A3E0FAA3E0FBD368
:102652001233E0E4FFFE7D487C42900047E0F8A39D
:10266200E0F9A3E0FAA3E0FB4034122EDFE4FBFA28
:10267200797A7844122FE8C004C005C006C00790DA
:10268200005FE0FCA3E0FDA3E0FEA3E0FFE4123064
:10269200FED003D002D001D000122DEA8032122ED9
:1026A200DFE4FBFA797A7844122FE8C004C005C04F
:1026B20006C00790005FE0FCA3E0FDA3E0FEA3E0FC
:1026C200FFE41230FED003D002D001D000122DEE72
:1026D20012313C900053EEF0A3EFF090006BE0FC5F
:1026E200A3E0FDA3E0FEA3E0FF900073E0F8A3E007
:1026F200F9A3E0FAA3E0FBD31233E0403490006B7D
:10270200E0F8A3E0F9A3E0FAA3E0FB900073E0FC99
:10271200A3E0FDA3E0FEA3E09BFFEE9AFEED99FD90
:10272200EC98FCEF2401FFE43EFEE43DFDE43C8036
:1027320036900073E0F8A3E0F9A3E0FAA3E0FB907F
:10274200006BE0FCA3E0FDA3E0FEA3E0C39BFFEE71
:102752009AFEED99FDEC98FCEF24FFFFEE34FFFEAC
:10276200ED34FFFDEC34FFFCE47BE87A03F9F81268
:1027720032B5C006C0079000A5E0249CFF9000A4DB
:10278200E034FFAB07FAE4F9F8D007D00612334081
:10279200E41230FE9000431233F190006BE0FCA390
:1027A200E0FDA3E0FEA3E0FF900073E0F8A3E0F9F0
:1027B200A3E0FAA3E0FBD31233E0E4FFFE7D487C02
:1027C20042900043E0F8A3E0F9A3E0FAA3E0FB4063
:1027D20034122EDFE4FBFA797A7844122FE8C0042F
:1027E200C005C006C00790006BE0FCA3E0FDA3E0BB
:1027F200FEA3E0FFE41230FED003D002D001D000ED
:10280200122DEA8032122EDFE4FBFA797A78441232
:102812002FE8C004C005C006C00790006BE0FCA30F
:10282200E0FDA3E0FEA3E0FFE41230FED003D002FD
:10283200D001D000122DEE12313C900051EEF0A3E7
:10284200EFF0900067E0FCA3E0FDA3E0FEA3E0FF51
:10285200900077E0F8A3E0F9A3E0FAA3E0FBD3123B
:1028620033E0401D900067E0F8A3E0F9A3E0FAA38B
:10287200E0FB900077E0FCA3E0FDA3E0FEA3E08094
:102882001C900077E0F8A3E0F9A3E0FAA3E0FB9044
:102892000067E0FCA3E0FDA3E0FEA3E0C39BFFEE24
:1028A2009AFEED99FDEC98FCEF24FFFFEE34FFFE5B
:1028B200ED34FFFDEC34FFFCE47BE87A03F9F81217
:1028C20032B5C006C0079000A7E0249CFF9000A686
:1028D200E034FFAB07FAE4F9F8D007D00612334030
:1028E200E41230FE90004B1233F1900067E0FCA33B
:1028F200E0FDA3E0FEA3E0FF900077E0F8A3E0F99B
:10290200A3E0FAA3E0FBD31233E0E4FFFE7D487CB0
:102912004290004BE0F8A3E0F9A3E0FAA3E0FB4009
:1029220034122EDFE4FBFA797A7844122FE8C004DD
:10293200C005C006C007900067E0FCA3E0FDA3E06D
:10294200FEA3E0FFE41230FED003D002D001D0009B
:10295200122DEA8032122EDFE4FBFA797A784412E1
:102962002FE8C004C005C006C007900067E0FCA3C2
:10297200E0FDA3E0FEA3E0FFE41230FED003D002AC
:10298200D001D000122DEE12313C900055EEF0A392
:10299200EFF0900043E0FCA3E0FDA3E0FEA3E0FF24
:1029A20090003FE0F8A3E0F9A3E0FAA3E0FB1230C5
:1029B2008560324030E4FFFE7D7A7C44900043E043
:1029C200F8A3E0F9A3E0FAA3E0FB122DEE90003F9A
:1029D200E0F8A3E0F9A3E0FAA3E0FB12308560057A
:1029E2004003022AD2900043E0FCA3E0FDA3E0FEF4
:1029F200A3E0FF90003FE0F8A3E0F9A3E0FAA3E030
:102A0200FB123085502EE4FFFE7D7A7CC490004399
:102A1200E0F8A3E0F9A3E0FAA3E0FB122DEE9000A8
:102A22003FE0F8A3E0F9A3E0FAA3E0FB12308550FF
:102A320003022AD290004BE0FCA3E0FDA3E0FEA338
:102A4200E0FF900047E0F8A3E0F9A3E0FAA3E0FB7F
:102A5200123085602F402DE4FFFE7D7A7C44900089
:102A62004BE0F8A3E0F9A3E0FAA3E0FB122DEE900D
:102A72000047E0F8A3E0F9A3E0FAA3E0FB123085F7
:102A82006002504C90004BE0FCA3E0FDA3E0FEA3EB
:102A9200E0FF900047E0F8A3E0F9A3E0FAA3E0FB2F
:102AA2001230855045E4FFFE7D7A7CC490004BE0F5
:102AB200F8A3E0F9A3E0FAA3E0FB122DEE900047A1
:102AC200E0F8A3E0F9A3E0FAA3E0FB123085501A84
:102AD200E490007BF074FFFFFE125B6E7D327C009F
:102AE2007F327E001251DE022358900043E0FCA3A5
:102AF200E0FDA3E0FEA3E0FF90003FE0F8A3E0F9D1
:102B0200A3E0FAA3E0FB122DEEE4FBFAF9784012FF
:102B12002FE812313C9000BDEEF0A3EFF090004B95
:102B2200E0FCA3E0FDA3E0FEA3E0FF900047E0F895
:102B3200A3E0F9A3E0FAA3E0FB122DEEE4FBFAF91D
:102B42007840122FE812313C9000BFEEF0A3EFF074
:102B5200900051E0FEA3E0FF900050E02FFF9000B4
:102B62004FE03EC313FEEF13FF9000B1EEF0A3EF70
:102B7200F0900055E0FEA3E0FF900054E02FFF909C
:102B82000053E03EC313FEEF13FF9000B3EEF0A339
:102B9200EFF074FFFFFE125B6EE49000A0F0A3F072
:102BA2009000A2F0A3741FF0900057E4F0A37432D7
:102BB200F0A3E4F0A37496F090000774FFF0A374FE
:102BC20060F0A3747BF0A37401F07B107D967C000F
:102BD2007F327E00125942900058E02428F0900083
:102BE20057E03400F09000BDE0FEA3E0FFE4FCFDFE
:102BF2009000D31233F19000D77406F0A37410F052
:102C0200900059E0FCA3E0FD900057E0FEA3E0FF36
:102C12001252F6900057E4F0A37432F090005AE09A
:102C22002414F0900059E03400F0E0FCA3E0FD90A1
:102C3200000774FFF0A37460F0A3747FF0A3740123
:102C4200F07B107F327E00125942900058E0242817
:102C5200F0900057E03400F09000BFE0FEA3E0FFE8
:102C6200E4FCFD9000D31233F19000D77406F0A378
:102C72007410F0900059E0FCA3E0FD900057E0FED4
:102C8200A3E0FF1252F6900057E4F0A37432F090E2
:102C9200005AE02414F0900059E03400F0E0FCA364
:102CA200E0FD90000774FFF0A37460F0A37483F05A
:102CB200A37401F07B107F327E00125942900058BB
:102CC200E02428F0900057E03400F09000B1E0FEDC
:102CD200A3E0FFE4FCFD9000D31233F19000D7741F
:102CE20006F0A37410F0900059E0FCA3E0FD900000
:102CF20057E0FEA3E0FF1252F6900057E4F0A374EF
:102D020032F090005AE02414F0900059E03400F0C0
:102D1200E0FCA3E0FD90000774FFF0A37460F0A351
:102D22007488F0A37401F07B107F327E0012594246
:102D3200900058E02428F0900057E03400F0900012
:102D4200B3E0FEA3E0FFE4FCFD9000D31233F19068
:102D520000D77406F0A37410F0900059E0FCA3E0D1
:102D6200FD900057E0FEA3E0FF1252F6900057E4F8
:102D7200F0A3741EF090005AE0241EF0900059E077
:102D82003400F0E0FCA3E0FD90000774FFF0A374B0
:102D920060F0A3748DF0A37401F07B107F1E7E009F
:102DA200125942900057E4F0A3741EF090005AE0CA
:102DB200241EF0900059E03400F0E0FCA3E0FD9006
:102DC200000774FFF0A37460F0A37498F0A3740179
:102DD200F07B107F1E7E00125942125D3574FFFF98
:042DE200FE125B6E14
:012DE60022CA
:0A6107004200A000004200A2FFFFCA
:0F627000C2938FA0AF058F80C291D291D293229B
:0562A700D292026270BA
:0B62450012623A9000AFE0FEA3E0FF01
:0B625000AD07AC06C292ECFF026270CA
:0C622E00E4FF12623AE4FF12623AE4FF5F
:0B623A00AD07AC06D292ECFF026270D0
:0E627F00AB05AA04126250AE02AF0302623AEF
:0B628D009000ABE0FEA3E0FF026250B7
:085B6E009000F4EEF0A3EFF04B
:105B7600A31233FD000000009000A5E024FFFB9077
:105B860000A4E034FFFA9000A7E024FFFE9000A6F0
:105B9600E034FF90003DF0A3CEF0E4FDFCFFFE12E2
:105BA6005F57D292C2939000F61233FD00000000B8
:105BB6009000A6E0FCA3E0FD9000A4E0FEA3E0FFB9
:105BC600123203E4FCFD9000F6E0F8A3E0F9A3E04E
:105BD600FAA3E0FBC31233E050349000F4E0FCA3D8
:105BE600E0FDECF580C291D2918D80C291D291A355
:105BF600E0FCA3E0FDA3E0FEA3E02401FFE43EFEFB
:105C0600E43DFDE43CFC9000F61233F180A2D29311
:015C1600226B
:1061A500125E90C293D290D2929000A0E0FCA3E040
:1061B500FDECF580C291D2918D80C291D291D2939E
:0161C50022B7
:1061C600AD07AC06C293D290D292ECF580C291D2C2
:0C61D60091AF058F80C291D291D293222C
:1061E200D2B37F327E00126112C2B37F327E0012BE
:0B61F2006112D2B37F327E0002611206
:1049DB001261E2D2907FF97E00126250E4FF126204
:1049EB003A7F0812623A7FC01262507F1912623A04
:1049FB007F1A12623A7FC11262507F451262357F75
:104A0B00C21262507F3312623A7FC5126250E4FFCA
:104A1B0012623A7F2812623A7FB11262507F901273
:104A2B00623A7F1112623A7FB41262507F021262B5
:104A3B003A7FB6126250E4FF12623A7F4212623A38
:104A4B007F3B12623A7FB71262507F0712623A7F46
:104A5B00E01262507F1F12623A7F2512623A7F2268
:104A6B0012623A7F0B12623A7F0612623A7F0A1287
:104A7B00623A7F4E12623A7FC612623A7F391262F5
:104A8B003A12622E12622E7FE11262507F1F126267
:104A9B003A7F3F12623A7F3F12623A7F0F12623ABD
:104AAB007F1F12623A7F0F12623A7F4612623A7F81
:104ABB004912623A7F3112623A7F0512623A7F09DC
:104ACB0012623A7F0312623A7F1C12623A7F1A1209
:104ADB0062357FF11262507F3612623A7F041262A6
:104AEB00357F3C12623A7F0F12623A7F0F12623AA5
:104AFB007FA412623A7F0212623A7FF21262507FF7
